:100000000C945D000C9485000C9485000C94850084
:100010000C9485000C9485000C9485000C9485004C
:100020000C9485000C9485000C9485000C9485003C
:100030000C9485000C9485000C9485000C9485002C
:100040000C945A030C9485000C9485000C94850044
:100050000C9485000C9485000C9485000C9485000C
:100060000C94A4030C948500000000080002010019
:100070000003040700000000000000000000000072
:10008000250028002B0000000000240027002A0083
:10009000040404040404040402020202020203032E
:1000A0000303030301020408102040800102040836
:1000B00010200102040810200C0611241FBECFEFEF
:1000C000D8E0DEBFCDBF11E0A0E0B1E0EAE4FCE0A3
:1000D00002C005900D92A231B107D9F721E0A2E14B
:1000E000B1E001C01D92A13EB207E1F710E0CDE5FD
:1000F000D0E004C02197FE010E941D06CC35D10737
:10010000C9F70E94C3040C9423060C94000090E0ED
:10011000FC01EC55FF4F249180579F4FFC018491C7
:10012000882399F090E0880F991FFC01EA57FF4F50
:10013000A591B491FC01E458FF4F859194918FB73C
:10014000F894EC91E22BEC938FBF089508950895F5
:1001500090E0FC01E859FF4F2491FC01EC55FF4F62
:100160003491FC01E057FF4FE491EE23C9F02223C4
:1001700039F0233001F1A8F4213019F1223029F1AE
:10018000F0E0EE0FFF1FE458FF4FA591B4918FB739
:10019000F894EC91611126C030953E233C938FBFBB
:1001A00008952730A9F02830C9F0243049F780910C
:1001B00080008F7D03C0809180008F7780938000C6
:1001C000DFCF84B58F7784BDDBCF84B58F7DFBCF48
:1001D0008091B0008F778093B000D2CF8091B00033
:1001E0008F7DF9CF3E2BDACF3FB7F8948091C901CC
:1001F0009091CA01A091CB01B091CC0126B5A89BEA
:1002000005C02F3F19F00196A11DB11D3FBFBA2FA8
:10021000A92F982F8827BC01CD01620F711D811D68
:10022000911D45E0660F771F881F991F4A95D1F7EA
:1002300008958F929F92AF92BF92CF92DF92EF92EA
:10024000FF924B015C010E94F4006B017C010E9453
:10025000F4006C197D098E099F09683E7340810581
:100260009105A8F321E0821A9108A108B10888EE4F
:10027000C80E83E0D81EE11CF11C81149104A10476
:10028000B10429F7FF90EF90DF90CF90BF90AF902F
:100290009F908F90089520917A01260F3327331F66
:1002A00021323105ECF420919E01FC0190E080E0C8
:1002B000243069F082E00895A0917A012191AC0187
:1002C000465A5E4FA40FB52FB11D2C930196861789
:1002D00098F380917A01680F60937A0180E0089525
:1002E00081E0089510929E0181E08093A001109218
:1002F0009F0161E082E10E94A80061E083E10E9429
:10030000A800E9EBF0E080818E7F808380818D7F83
:10031000808382E08093B80085E48093BC000895D8
:10032000CF93DF9391E0909359018823B9F0C09166
:10033000B800D091BA008091BC008A7B8093BC0049
:1003400060E082E10E94A80060E083E10E94A800D2
:100350000E947201D093BA00C093B800DF91CF9190
:1003600008950895E091D4018091D301E81730F405
:10037000F0E0EC5CFE4F808190E008958FEF9FEFFE
:1003800008959091D4018091D3012FEF3FEF9817FA
:1003900048F4E92FF0E0EC5CFE4F208130E09F5FF5
:1003A0009093D401C90108958091D3019091D40113
:1003B000891B990B0895CF92DF92EF92FF920F93D2
:1003C0001F93CF93DF937C01CB018A0120913301EE
:1003D000222389F0EB016B01C40ED51ECC15DD057F
:1003E00069F06991D701ED91FC910190F081E02DC8
:1003F000C7010995F3CF642F0E944B01C801DF911B
:10040000CF911F910F91FF90EF90DF90CF900895C3
:10041000CF93DF931F92CDB7DEB76983209133016D
:100420002223F9F02091D101203258F021E030E070
:10043000FC013383228390E080E00F90DF91CF9125
:1004400008958091D201E82FF0E0ED5EFE4F998192
:1004500090838F5F8093D2018093D10181E090E0FF
:10046000ECCF61E0CE0101960E944B01F7CF90E006
:1004700080E00895CF92DF92EF92FF920F931F9347
:10048000CF93C62F91E09093330190E690931201A1
:100490001092D2011092D101682F85ED91E00E9457
:1004A00008026C2F85ED91E00E940802C091D101F5
:1004B000C13208F091C00E94F4006B017C01809170
:1004C0009E01811164C082E080939E0181E080934F
:1004D000A0018FEF80939D011092C201C093C101D2
:1004E000A3E1B1E0E1EAF1E080E0C81383C010923B
:1004F000C3018091C301806C8093C30180919F01EF
:10050000813009F07BC010929F010E94F4006B01C2
:100510007C018091C3018093BB0080915501909133
:100520005601A0915701B0915801892B8A2B8B2B32
:1005300099F00E94F400009155011091560120910C
:100540005701309158016C197D098E099F090617D2
:10055000170728073907E0F18091BC0083FDD9CF48
:1005600085EC8093BC000E94F4006B017C018091BB
:100570009E01823009F444C080919D018F3F61F15A
:1005800080919D01803241F180919D0125C0809133
:10059000550190915601A0915701B0915801892BB6
:1005A0008A2B8B2B09F48BCF0E94F400009155010C
:1005B0001091560120915701309158016C197D0915
:1005C0008E099F09061717072807390708F077CF04
:1005D000809154010E9490011092D2011092D10199
:1005E00010923301CF911F910F91FF90EF90DF9008
:1005F000CF9008959D9191938F5F77CF85EEB1CF86
:100600008091550190915601A0915701B0915801E8
:10061000892B8A2B8B2B09F4AACF0E94F40000911E
:1006200055011091560120915701309158016C19D4
:100630007D098E099F09061717072807390708F053
:1006400096CFC6CF85ED8093BC00809155019091E7
:100650005601A0915701B09158010796A11DB11DF7
:1006600023E0B695A795979587952A95D1F7209180
:10067000BC0024FD03C010929E01089540915501D5
:10068000509156016091570170915801452B462BAE
:10069000472B69F30097A105B10541F026E02A95A3
:1006A000F1F700C00197A109B109E1CF8091540190
:1006B0000C9490011F920F920FB60F9211242F935A
:1006C0003F938F939F93AF93BF938091C501909178
:1006D000C601A091C701B091C8013091C40128E1C1
:1006E000230F2D3758F50896A11DB11D2093C40185
:1006F0008093C5019093C601A093C701B093C80130
:100700008091C9019091CA01A091CB01B091CC0117
:100710000196A11DB11D8093C9019093CA01A093B8
:10072000CB01B093CC01BF91AF919F918F913F913D
:100730002F910F900FBE0F901F9018952BE9230F4C
:100740000996A11DB11DD2CF1F920F920FB60F9225
:1007500011242F933F934F935F936F937F938F93C6
:100760009F93AF93BF93EF93FF938091B900887FDE
:10077000803609F44AC0F0F5883209F4A7C018F5AC
:10078000803109F49BC0B8F4882309F4F9C088309B
:1007900009F494C0FF91EF91BF91AF919F918F9118
:1007A0007F916F915F914F913F912F910F900FBE6D
:1007B0000F901F901895883109F488C0803251F746
:1007C00080939D0114C0803409F49DC040F48033AF
:1007D000B9F38833F9F680939D0185ECB0C080357C
:1007E00009F485C0883509F496C0883499F60E94CA
:1007F0002203D0CF883909F48CC038F5883729F026
:1008000050F4883611F0803729F683E080939E01FA
:1008100010929C0157C0883809F47BC0803919F0C8
:10082000803809F0B7CF80919C01803208F071C008
:10083000E0919C0181E08E0F80939C018091BB0030
:10084000F0E0E458FE4F80833DC0803B39F0E0F497
:10085000803A09F479C0883A09F09CCF84E080930B
:100860009E0110927B0110927A01E091CF01F091EC
:10087000D001099580917A0181110FC081E08093A8
:100880007A0110925A0109C0803C09F4A6CF883C35
:1008900009F4A3CF883B09F07DCFE0917B0181E093
:1008A0008E0F80937B01F0E0E65AFE4F80818093AB
:1008B000BB0090917B0180917A0129C08091C30196
:1008C0008093BB0085EC8093BC0064CF9091C20103
:1008D0008091C101981758F5E091C20181E08E0F17
:1008E0008093C201F0E0EF55FE4F8081E9CFE091A7
:1008F000C20181E08E0F8093C2018091BB00F0E0C5
:10090000EF55FE4F80839091C2018091C1019817ED
:10091000C8F285E8D8CFE091C20181E08E0F8093C4
:10092000C2018091BB00F0E0EF55FE4F80838091C3
:10093000A00181115CCF81E080939F0184EA8093C4
:10094000BC0010929E0126CF85EC8093BC001092D3
:100950009E0180919C01803230F4E0919C01F0E096
:10096000E458FE4F108260919C0170E0E091CD014F
:10097000F091CE018CE791E0099510929C010ACF8D
:1009800010929D0134CF789484B5826084BD84B583
:10099000816084BD85B5826085BD85B5816085BD7A
:1009A00080916E00816080936E0010928100809132
:1009B00081008260809381008091800081608093BB
:1009C00080008091B10084608093B1008091B0007C
:1009D00081608093B00080917A00846080937A0077
:1009E00080917A008D7F80937A0080917A008E7F4B
:1009F00080937A0080917A00806880937A001092C8
:100A0000C10084E00E94870085E00E94870086E0A4
:100A10000E94870087E00E94870061E084E00E94D6
:100A2000A80061E085E00E94A80061E086E00E94E5
:100A3000A80061E087E00E94A80064E670E080E022
:100A400090E00E9419011092D4011092D3011092EB
:100A5000D2011092D1010E94720186EA90E0909337
:100A6000D0018093CF0187EA90E09093CE018093EC
:100A7000CD0161E082E10E94A80061E083E10E9473
:100A8000A80060E880E10E943A026FEF8AE10E94CC
:100A90003A026EEF8BE10E943A0260E08CE10E9424
:100AA0003A026EE08DE10E943A026EEC8EE10E9405
:100AB0003A026DEF8FE10E943A0268E680E20E94FE
:100AC0003A026CE981E20E943A0260E08AE20E9406
:100AD0003A0261E08BE20E943A0260E08CE20E94FE
:100AE0003A026DE18DE20E943A0260E08EE20E94DD
:100AF0003A0260E08FE20E943A0260E080E30E94E6
:100B00003A0260E081E30E943A0260E281EB0E94D7
:100B10003A0260E881E10E943A026FEF82E20E94AD
:100B20003A026EEF83E20E943A0260E084E20E94A1
:100B30003A026EE085E20E943A0269EA86E20E9489
:100B40003A026CEF87E20E943A0262E888E20E9471
:100B50003A0262E589E20E943A0260E082E30E9482
:100B60003A0261E083E30E943A0260E084E30E947B
:100B70003A0261E085E30E943A0260E086E30E9467
:100B80003A0260E087E30E943A0260E088E30E9454
:100B90003A0260E089E30E943A0260E881EB0E9439
:100BA0003A02C0E0D0E060E881E10E943A026FE4DE
:100BB00080E10E943A026FE480E10E943A0260E123
:100BC00077E280E090E00E9419016EE480E10E94EB
:100BD0003A0260E177E280E090E00E9419016DE462
:100BE00080E10E943A0260E177E280E090E00E94BA
:100BF000190160E177E280E090E00E94190160E86D
:100C000080E10E943A026FE681E10E943A02209759
:100C100051F20E940000C7CFE5EDF1E0138212828D
:100C200088EE93E0A0E0B0E084839583A683B78349
:100C300084E091E0918380830895EE0FFF1F05907B
:0A0C4000F491E02D0994F894FFCF21
:100C4A00000000000802DB013702B101D401C10132
:020C5A00B201E5
:00000001FF
